:100000000C9434000C9451000C9451000C94510049
:100010000C9451000C9451000C9451000C9451001C
:100020000C9451000C9451000C9483090C945100D1
:100030000C9451000C9451000C9451000C945100FC
:100040000C9451000C9451000C9451000C945100EC
:100050000C945100A5070908A208A908B008B70820
:10006000C1085808C908620911241FBECFE5D8E0AD
:10007000DEBFCDBF12E0A0E6B0E0EAE7F5E102C0E6
:1000800005900D92AA38B107D9F722E0AAE8B2E0AC
:1000900001C01D92AD38B207E1F70E9495040C949F
:1000A000BB0A0C940000823419F118F4813439F041
:1000B00008958334B1F1843409F44CC0089541307B
:1000C00059F42AB381E090E002C0880F991F6A9525
:1000D000E2F7822B8ABB08952AB381E090E002C048
:1000E000880F991F6A95E2F7809582238ABB08954D
:1000F000413059F427B381E090E002C0880F991F86
:100100006A95E2F7822B87BB089527B381E090E0E0
:1001100002C0880F991F6A95E2F78095822387BBFA
:100120000895413059F424B381E090E002C0880F73
:10013000991F6A95E2F7822B84BB089524B381E06E
:1001400090E002C0880F991F6A95E2F7809582239C
:1001500084BB0895413059F421B381E090E002C09E
:10016000880F991F6A95E2F7822B81BB089521B30E
:1001700081E090E002C0880F991F6A95E2F78095B0
:10018000822381BB0895823419F118F4813439F047
:1001900008958334B1F1843409F44CC0089541309A
:1001A00059F42BB381E090E002C0880F991F6A9543
:1001B000E2F7822B8BBB08952BB381E090E002C065
:1001C000880F991F6A95E2F7809582238BBB08956B
:1001D000413059F428B381E090E002C0880F991FA4
:1001E0006A95E2F7822B88BB089528B381E090E0FE
:1001F00002C0880F991F6A95E2F78095822388BB19
:100200000895413059F425B381E090E002C0880F91
:10021000991F6A95E2F7822B85BB089525B381E08B
:1002200090E002C0880F991F6A95E2F780958223BB
:1002300085BB0895413059F422B381E090E002C0BB
:10024000880F991F6A95E2F7822B82BB089522B32B
:1002500081E090E002C0880F991F6A95E2F78095CF
:10026000822382BB08958234E9F018F4813431F09E
:1002700055C0833459F18434E9F150C049B381E069
:1002800090E09C01062E02C0220F331F0A94E2F771
:10029000842F90E08223932302C0959587956A95D9
:1002A000E2F7089546B381E090E09C01062E02C07B
:1002B000220F331F0A94E2F7842F90E082239323C6
:1002C00002C0959587956A95E2F7089543B381E05A
:1002D00090E09C01062E02C0220F331F0A94E2F721
:1002E000842F90E08223932302C0959587956A9589
:1002F000E2F7089540B381E090E09C01062E02C031
:10030000220F331F0A94E2F7842F90E08223932375
:1003100002C0959587956A95E2F7089580E0089563
:10032000823461F118F4813441F00895833409F482
:1003300046C0843409F464C00895413099F480B70C
:100340008B7F80BF2AB381E090E002C0880F991FA5
:100350006A95E2F7982F909592239ABB9BB3892BCD
:100360008BBB08952BB381E090E002C0880F991FEA
:100370006A95E2F7809582238BBB0895413099F40A
:1003800080B78B7F80BF27B381E090E002C0880FE9
:10039000991F6A95E2F7982F9095922397BB98B38F
:1003A000892B88BB089528B381E090E002C0880FB4
:1003B000991F6A95E2F78095822388BB08954130A2
:1003C00099F480B78B7F80BF24B381E090E002C0B6
:1003D000880F991F6A95E2F7982F9095922394BB06
:1003E00095B3892B85BB089525B381E090E002C0C9
:1003F000880F991F6A95E2F78095822385BB08953F
:10040000413099F480B78B7F80BF21B381E090E0C9
:1004100002C0880F991F6A95E2F7982F9095922352
:1004200091BB92B3892B82BB089522B381E090E007
:1004300002C0880F991F6A95E2F78095822382BBDC
:100440000895E199FECF9FBB8EBB8CB381608CBBBE
:100450008DB30895DC01E199FECF20E030E00FC0BC
:10046000F901EA0FFB1FFFBBEEBB9CB391609CBB85
:10047000FB01E20FF31F9DB390832F5F3F4F2417C3
:10048000350770F30895E199FECF9FBB8EBB8CB307
:1004900081608CBB8DB3861739F06DBB8CB38460E3
:1004A0008CBB8CB382608CBB0895CF93DF93DC014F
:1004B000EA0120E030E01AC0E199FECFC9018A0FBD
:1004C0009B1F9FBB8EBB9CB391609CBB5DB3FB012C
:1004D000E20FF31F9081591739F09DBB9CB39460D4
:1004E0009CBB9CB392609CBB2F5F3F4F2C173D077A
:1004F00018F3DF91CF910895CF93C82F40E062E0C9
:1005000082E00E94C30040E061E082E00E94C300FC
:1005100067E08C2F0E943301482F67E081E00E9442
:10052000C30066E08C2F0E943301482F66E081E013
:100530000E94C30065E08C2F0E943301482F65E0C4
:1005400081E00E94C30064E08C2F0E943301482F99
:1005500064E081E00E94C30040E063E082E00E942A
:10056000C30085E88A95F1F7000041E063E082E08E
:100570000E94C30063E08C2F0E943301482F67E084
:1005800081E00E94C30062E08C2F0E943301482F5B
:1005900066E081E00E94C30061E08C2F0E9433017D
:1005A000482F65E081E00E94C30060E08C2F0E942C
:1005B0003301482F64E081E00E94C30040E063E023
:1005C00082E00E94C30085E88A95F1F7000041E0CF
:1005D00063E082E00E94C300CF910895CF93C82FBB
:1005E00040E062E082E00E94C30041E061E082E01E
:1005F0000E94C30067E08C2F0E943301482F67E000
:1006000081E00E94C30066E08C2F0E943301482FD6
:1006100066E081E00E94C30065E08C2F0E943301F8
:10062000482F65E081E00E94C30064E08C2F0E94A7
:100630003301482F64E081E00E94C30040E063E0A2
:1006400082E00E94C30085E88A95F1F7000041E04E
:1006500063E082E00E94C30063E08C2F0E943301BC
:10066000482F67E081E00E94C30062E08C2F0E9467
:100670003301482F66E081E00E94C30061E08C2FC7
:100680000E943301482F65E081E00E94C30060E0D2
:100690008C2F0E943301482F64E081E00E94C30048
:1006A00040E063E082E00E94C30085E88A95F1F7AC
:1006B000000041E063E082E00E94C300CF91089512
:1006C00041E067E081E00E94530041E063E082E0A6
:1006D0000E94530041E063E082E00E94C3002FE7E4
:1006E00088E391E0215080409040E1F700C0000095
:1006F00040E062E082E00E94C30040E061E082E00E
:100700000E94C30040E067E081E00E94C30040E037
:1007100066E081E00E94C30041E065E081E00E9464
:10072000C30040E064E081E00E94C30040E063E079
:1007300082E00E94C30025E82A95F1F7000041E01D
:1007400063E082E00E94C3008CE20E947C028FEC96
:1007500097E00197F1F700C000008FE00E947C0253
:100760008FEC97E00197F1F700C0000081E00E9454
:100770007C028FE99FE00197F1F700C0000086E05E
:100780000E947C028FEC97E00197F1F700C0000017
:1007900008950E94EE020895CF93DF93EC0103C009
:1007A0000E94EE02219688818111FACFDF91CF91CC
:1007B000089581E00E947C028FE99FE00197F1F7A4
:1007C00000C000000895862B0E947C02089541E03D
:1007D00060E084E40E94530041E061E084E40E9410
:1007E000530041E062E084E40E94530041E063E092
:1007F00084E40E94530040E064E084E40E945300DB
:1008000040E065E084E40E94530040E066E084E458
:100810000E94530040E067E084E40E94530041E0FE
:1008200064E084E40E94900141E065E084E40E9479
:10083000900141E066E084E40E94900141E067E0BD
:1008400084E40E9490010895FF920F931F93CF9329
:10085000DF93CDB7DEB760970FB6F894DEBF0FBE5B
:10086000CDBF80E1E0E6F0E0DE01119601900D924F
:100870008A95E1F7FF24FA9400E03CC041E060E093
:1008800084E40E94C30041E061E084E40E94C3006C
:1008900041E062E084E40E94C30041E063E084E45C
:1008A0000E94C3008FE39CE90197F1F700C00000AC
:1008B00040E0602F84E40E94C30010E018C064E0B0
:1008C000610F84E40E943301811110C0E02FF0E039
:1008D000EE0FFF1FEE0FFF1F81E090E08C0F9D1FBA
:1008E000E80FF91FE10FF11DF08003C01F5F143006
:1008F00030F30F5F043010F28F2D60960FB6F8942E
:10090000DEBF0FBECDBFDF91CF911F910F91FF9042
:10091000089541E00E945300089541E00E94C30001
:10092000089540E00E94C3000895CF93DF93CDB7B0
:10093000DEB728970FB6F894DEBF0FBECDBF67E0D5
:1009400083E40E94890464E084E40E94890462E0F4
:1009500083E40E9489040E9460030E94E7030E94CE
:10096000890A80E790E00E94CC0361E082E00E9467
:10097000E30381E890E00E94CC032FEF39E688E1A1
:10098000215030408040E1F700C000000E94D903B0
:1009900080E091E00E942102813039F481E091E011
:1009A0000E942102813009F4D5C08DE890E00E94B8
:1009B000CC0361E082E00E94E30387E990E00E94BB
:1009C000CC039FEF29E638E1915020403040E1F719
:1009D00000C000000E94D90382EA90E00E94CC038C
:1009E00061E082E00E94E30381EB90E00E94CC038F
:1009F0008FEF89838A838B838C8310E02AC00E94C7
:100A0000240401C08FEF8F3FD1F3E1E0F0E0EC0F61
:100A1000FD1FE10FF11D80830E94C9038FEF92E556
:100A200027E0815090402040E1F700C000006CE0DA
:100A3000610F82E00E94E3038AE20E94C9033FEF54
:100A400080E792E0315080409040E1F700C0000024
:100A50001F5F1430B8F244E050E0BE016F5F7F4F7B
:100A600082E091E00E94550261E080E091E00E9406
:100A700043020E94D9038DEB90E00E94CC032FEF3C
:100A800034E38CE0215030408040E1F700C00000AA
:100A90000E94D90388EC90E00E94CC0361E082E0E0
:100AA0000E94E30387ED90E00E94CC0310E02AC08F
:100AB0000E94240401C08FEF8F3FD1F3E1E0F0E00A
:100AC000EC0FFD1FE10FF11D80830E94C9039FEF12
:100AD00022E537E0915020403040E1F700C00000AF
:100AE0006CE0610F82E00E94E3038AE20E94C90386
:100AF0008FEF90E722E0815090402040E1F700C066
:100B000000001F5F1430B8F244E050E0BE016F5F98
:100B10007F4F86E091E00E94550261E081E091E024
:100B20000E9443020E94D9038DEB90E00E94CC0307
:100B30003FEF84E39CE0315080409040E1F700C0FB
:100B400000000E94D90360E08AE091E00E94430225
:100B5000F12C05C08AE091E00E942102F82E00E00D
:100B600080918A02813001F50E94AB0A10928C02BA
:100B700010928B0210928A0264E084E40E94910435
:100B800067E083E40E9491040E94D90383EE90E021
:100B90000E94CC032FEF39E688E12150304080409D
:100BA000E1F700C0000000E0E12C1FEFBCC191E0C4
:100BB000F91227C00E94D90383EF90E00E94CC0372
:100BC00061E082E00E94E30381E091E00E94CC03B7
:100BD00062E083E40E948D042AEA36EE86E991E021
:100BE0002150304080409040D9F7000062E083E41B
:100BF0000E94910460E08AE091E00E944302E12CAF
:100C0000F12C0E94D90381E191E00E94CC0361E0C4
:100C100082E00E94E3038FE191E00E94CC0303C0D5
:100C20000E942404182F1F3FD9F380ED810F8230DA
:100C300088F00E94D9038FE291E00E94CC032FEF4D
:100C400039E688E1215030408040E1F700C00000E3
:100C50001FEF69C18FEF8D838E838F838887898390
:100C60008A838B838C83103309F4ABC0113309F46E
:100C700055C159C10E94D9038CE391E00E94CC0375
:100C800061E082E00E94E30387E491E00E94CC03EC
:100C90009FEF21EE34E0915020403040E1F700C05A
:100CA000000010E02AC00E94240401C08FEF8F3F93
:100CB000D1F3E5E0F0E0EC0FFD1FE10FF11D8083C3
:100CC0000E94C9038FEF92E527E0815090402040B9
:100CD000E1F700C000006CE0610F82E00E94E303D6
:100CE0008AE20E94C9033FEF80E792E031508040E2
:100CF0009040E1F700C000001F5F1430B8F244E0FC
:100D000050E0BE016F5F7F4F82E091E00E942A02B7
:100D100044E0BE016F5F7F4FCE0105960E949A09A5
:100D2000813011F50E94D90383E591E00E94CC0344
:100D300061E082E00E94E3038CE391E00E94CC0337
:100D40002FEF34E38CE0215030408040E1F700C0C9
:100D5000000067E083E40E948D040E94950A0E94CF
:100D6000D903E12C81E02BC0E3940E94D9038EE5E6
:100D700091E00E94CC0361E082E00E94E30389E6F7
:100D800091E00E94CC0383E38E190E94C9039FEF78
:100D900029E638E1915020403040E1F700C00000E2
:100DA0000E94D90382E08E1548F461E08AE091E068
:100DB0000E9443021FEFFF24F394B5C0802F1FEF62
:100DC00001C0802F813009F055CF082FACC00E94A0
:100DD000D90385E791E00E94CC0361E082E00E94A4
:100DE000E30380E891E00E94CC039FEF21EE34E022
:100DF000915020403040E1F700C0000010E02AC0D0
:100E00000E94240401C08FEF8F3FD1F3E5E0F0E0B2
:100E1000EC0FFD1FE10FF11D80830E94C9038FEFCE
:100E200092E527E0815090402040E1F700C00000AB
:100E30006CE0610F82E00E94E3038AE20E94C90332
:100E40003FEF80E792E0315080409040E1F700C0F2
:100E500000001F5F1430B8F244E050E0BE016F5F45
:100E60007F4F86E091E00E942A0244E0BE016F5F5E
:100E70007F4FCE0105960E949A09813011F50E949C
:100E8000D90383E591E00E94CC0361E082E00E94F7
:100E9000E30385E791E00E94CC032FEF34E38CE07D
:100EA000215030408040E1F700C0000064E084E45D
:100EB0000E948D040E94950A0E94D903E12C82E0D1
:100EC0002BC0E3940E94D9038CE891E00E94CC03EC
:100ED00061E082E00E94E30389E691E00E94CC0396
:100EE00083E38E190E94C9039FEF29E638E19150F0
:100EF00020403040E1F700C000000E94D90382E0AA
:100F00008E1548F461E08AE091E00E9443021FEFF1
:100F1000FF24F39408C0802F1FEF01C0802F823080
:100F200009F055CF082F002309F441CEEE24E394B5
:100F3000E4C18E2D90E0FC013197EA30F10508F014
:100F4000DCC1E65DFF4F0C94B50A0E94D90387E926
:100F500091E00E94CC0361E082E00E94E303013053
:100F600029F487EA91E00E94CC0306C0023021F404
:100F700087EB91E00E94CC03802F0E94B009182FCC
:100F80009FEF20E732E0915020403040E1F700C071
:100F900000008133F1F0823309F1833319F1843396
:100FA00011F4023021F1143311F4013029F11F3F03
:100FB00031F10E94D90387EC91E00E94CC038FEFBE
:100FC00094E32CE0815090402040E1F700C0000005
:100FD00016C00F2EF3E0EF2EF02D11C06894EE2412
:100FE000E2F80DC00F2EF5E0EF2EF02D08C00F2E09
:100FF000F6E0EF2EF02D03C06894EE24E1F81153D3
:10100000143008F47AC180918A02882309F49DCFB4
:1010100074C10E94D90383ED91E00E94CC0361E08A
:1010200082E00E94E30386EE91E00E94CC03802FD1
:101030000E94B009182F3FEF80E792E031508040C6
:101040009040E1F700C000001133C1F01233D9F035
:101050001333F1F0143301F11F3F01F10E94D90362
:1010600087EC91E00E94CC032FEF34E38CE0215019
:1010700030408040E1F700C0000010C00F2EF6E0C5
:10108000EF2EF02D0BC00F2EF7E0EF2EF02D06C047
:101090006894EE24E3F802C0EE24E3941153143074
:1010A00008F42BC180918A02882309F4B2CF25C1AC
:1010B0000E94D90387EF91E00E94CC0361E082E0B7
:1010C0000E94E3038AE092E00E94CC03802F0E94FA
:1010D000B009182F9FEF20E732E0915020403040B8
:1010E000E1F700C000008133B1F08233C9F08033F2
:1010F000E1F08F3FE9F00E94D90387EC91E00E9474
:10110000CC038FEF94E32CE0815090402040E1F736
:1011100000C000000DC00F2EFAE0EF2EF02D08C029
:101120000F2EF9E0EF2EF02D03C06894EE24E1F8C5
:101130001053133008F4E1C080918A02882309F427
:10114000B7CFDBC0602F83E00E94D009EE24E39488
:10115000D4C0602F84E00E94D009EE24E394CDC077
:10116000602F85E00E94D009EE24E394C6C0602F72
:1011700086E00E94D009023009F0B0C0EE24E3946A
:10118000BCC0602F87E00E94D0096894EE24E1F88B
:10119000B4C0602F89E00E94D0096894EE24E3F87F
:1011A000ACC00E94D9038BE192E00E94CC038FED8A
:1011B0000E94C90383E40E94C9036BE081E00E949E
:1011C000E3033FEF81EE94E0315080409040E1F73F
:1011D00000C00000802F0E94B0092FE73AE196E09E
:1011E000215030409040E1F700C0000090918A0209
:1011F000913009F477C010ED180F1A3080F00E947A
:10120000D90387EC91E00E94CC032FEF34E38CE00C
:10121000215030408040E1F700C0000054C00E94DF
:10122000C903802F0E94B0099FE72AE136E0915060
:1012300020403040E1F700C0000090918A029130D8
:1012400009F454C00F2EF0EDDF2EF02DD80E99E0EA
:101250009D1580F40E94D90387EC91E00E94CC0395
:101260002FEF34E38CE0215030408040E1F700C0A4
:10127000000029C00E94C903110FE12EEE0CEE0CF4
:101280001E0DE12EED0C80E40E94900A9FEF21EEEE
:1012900034E0915020403040E1F700C000008E2D36
:1012A0000E94900A0E94D90389E292E00E94CC0336
:1012B0008FEF94E32CE0815090402040E1F700C094
:1012C000000001C0E12CE11015C080918A02882342
:1012D00009F467CF6894EE24E3F80FC06894EE2415
:1012E000E1F80BC06894EE24E3F807C06894EE249C
:1012F000E3F803C06894EE24E3F880918A02813019
:1013000009F017CE2DCC1F920F920FB60F92112419
:101310008F939F9380918B0290918C020196909372
:101320008C0280938B029F918F910F900FBE0F9034
:101330001F901895DC0190E00DC0292F30E0FD01D1
:10134000E20FF31F5081FB01E20FF31F20815213C4
:1013500005C09F5F941788F381E0089580E00895A9
:10136000CF93C82F8FEF18C020918B0230918C0241
:10137000283B3B4010F0C13049F020918B02309166
:101380008C02203D374030F0C23021F491E0909340
:101390008A0204C00E9424048F3F31F3CF91089544
:1013A000EF92FF920F931F93CF93DF93D82FF62ED8
:1013B000E12C00E010E00E94D903D53011F128F4AF
:1013C000D33049F0D43091F047C0D73081F120F1CB
:1013D000D930C1F141C08AE392E00E94CC030F2EC4
:1013E000F1E3EF2EF02D01E211E136C083E492E04B
:1013F0000E94CC030F2EF2E3EF2EF02D02E212E159
:101400002BC08CE492E00E94CC030F2EF3E3EF2E6E
:10141000F02D03E213E120C085E592E00E94CC03A9
:101420000F2EF4E3EF2EF02D04E214E115C08EE54B
:1014300092E00E94CC030F2EF5E3EF2EF02D05E293
:1014400015E10AC084E692E00E94CC030F2EF6E379
:10145000EF2EF02D06E216E1812F0E94900A2FEF69
:1014600080E792E0215080409040E1F700C000000A
:101470008FEF0E94900A813029F481E792E00E9468
:10148000CC0304C084E792E00E94CC0361E082E0D8
:101490000E94E30388E792E00E94CC038F2D0E9414
:1014A000B009C82F2FEF80E792E021508040904094
:1014B000E1F700C00000C13321F4802F0E94900AA0
:1014C00019C0C23321F48E2D0E94900A13C0CF3F61
:1014D00089F0C03379F00E94D90387EC91E00E9433
:1014E000CC032FEF84E39CE0215080409040E1F753
:1014F00000C00000C053C33028F080918A028823C6
:1015000009F459CFDF91CF911F910F91FF90EF9088
:10151000089587B3806B87BB8DB181658DB90895C0
:101520008FB9779BFECF8FB108958EE48CBF83B7C0
:10153000886083BF83B78F7B83BF83B7816083BF9E
:1015400083B78D7F83BF83B7846083BF789489B767
:10155000826089BF089583B78E7F83BF83B78D7FF5
:1015600083BF83B78B7F83BF0895EE0FFF1F059066
:0A157000F491E02D0994F894FFCFE8
:10157A003738392F3435362A3132332D41303D2B25
:10158A0057656C636F6D6520746F20736D6172743B
:10159A0000686F6D652073797374656D004C6F67B1
:1015AA00696E20666F720066697273742074696D61
:1015BA0065005365742041646D696E2070617373B0
:1015CA000041646D696E20706173733A00506173F3
:1015DA00732053617665640053657420477565739B
:1015EA00742050617373004775657374205061737A
:1015FA00733A0053657373696F6E2054696D656F32
:10160A007574004C6F67696E20626C6F636B6564FA
:10161A000077616974203230207365636F6E64737A
:10162A000053656C656374206D6F6465203A003001
:10163A003A41646D696E20313A4775657374005793
:10164A00726F6E6720696E7075742E0041646D69E1
:10165A006E206D6F646500456E746572205061730B
:10166A00733A005269676874207061737300577225
:10167A006F6E672050617373005472696573206CD2
:10168A006566743A004775657374206D6F6465000A
:10169A00456E74657220706173733A0057726F6E8B
:1016AA0067207061737300313A526F6F6D31203267
:1016BA003A526F6F6D3200333A526F6F6D33203486
:1016CA003A4D6F72652000333A526F6F6D33203492
:1016DA003A526F6F6D340057726F6E6720696E7081
:1016EA00757400313A526F6F6D3420202020323ADF
:1016FA00545620202000333A41697220436F6E64A9
:10170A002E343A52455400313A5365742074656D4B
:10171A0070657261747572652000323A436F6E7437
:10172A00726F6C2020303A5245540053657420740D
:10173A00656D702E3A5F5F200054656D7065726149
:10174A00747572652053656E7400526F6F6D312027
:10175A00533A00526F6F6D3220533A00526F6F6DD9
:10176A003320533A00526F6F6D3420533A00545667
:10177A0020533A0041697220436F6E642E20533A17
:10178A00004F4E004F464600312D4F6E20322D4FEE
:0A179A00666620302D524554000011
:00000001FF
