S01300004D617374657220636F64652E73726563EA
S11300000C9434000C9451000C9451000C94510045
S11300100C9451000C9451000C9451000C94510018
S11300200C9451000C9451000C947B090C945100D5
S11300300C9451000C9451000C9451000C945100F8
S11300400C9451000C9451000C9451000C945100E8
S11300500C945100B407080888088E0894089A087C
S1130060A4084A08AA08AF0711241FBECFE5D8E0A8
S1130070DEBFCDBF12E0A0E6B0E0E8ECF5E102C0DF
S113008005900D92AA38B107D9F722E0AAE8B2E0A8
S113009001C01D92AD38B207E1F70E9491040C949F
S11300A0E20A0C940000823419F118F4813439F016
S11300B008958334B1F1843409F44CC00895413077
S11300C059F42AB381E090E002C0880F991F6A9521
S11300D0E2F7822B8ABB08952AB381E090E002C044
S11300E0880F991F6A95E2F7809582238ABB089549
S11300F0413059F427B381E090E002C0880F991F82
S11301006A95E2F7822B87BB089527B381E090E0DC
S113011002C0880F991F6A95E2F78095822387BBF6
S11301200895413059F424B381E090E002C0880F6F
S1130130991F6A95E2F7822B84BB089524B381E06A
S113014090E002C0880F991F6A95E2F78095822398
S113015084BB0895413059F421B381E090E002C09A
S1130160880F991F6A95E2F7822B81BB089521B30A
S113017081E090E002C0880F991F6A95E2F78095AC
S1130180822381BB0895823419F118F4813439F043
S113019008958334B1F1843409F44CC00895413096
S11301A059F42BB381E090E002C0880F991F6A953F
S11301B0E2F7822B8BBB08952BB381E090E002C061
S11301C0880F991F6A95E2F7809582238BBB089567
S11301D0413059F428B381E090E002C0880F991FA0
S11301E06A95E2F7822B88BB089528B381E090E0FA
S11301F002C0880F991F6A95E2F78095822388BB15
S11302000895413059F425B381E090E002C0880F8D
S1130210991F6A95E2F7822B85BB089525B381E087
S113022090E002C0880F991F6A95E2F780958223B7
S113023085BB0895413059F422B381E090E002C0B7
S1130240880F991F6A95E2F7822B82BB089522B327
S113025081E090E002C0880F991F6A95E2F78095CB
S1130260822382BB08958234D9F018F4813431F0AA
S11302704DC0833439F18434B9F148C029B381E0E5
S113028090E0062E02C0880F991F0A94E2F730E02E
S11302908223932302C0959587956A95E2F7089582
S11302A026B381E090E0062E02C0880F991F0A94BD
S11302B0E2F730E08223932302C0959587956A95EF
S11302C0E2F7089523B381E090E0062E02C0880F80
S11302D0991F0A94E2F730E08223932302C0959594
S11302E087956A95E2F7089520B381E090E0062EA1
S11302F002C0880F991F0A94E2F730E08223932307
S113030002C0959587956A95E2F7089580E008956F
S1130310823461F118F4813441F00895833409F48E
S113032046C0843409F464C00895413099F480B718
S11303308B7F80BF2AB381E090E002C0880F991FB1
S11303406A95E2F7982F909592239ABB9BB3892BD9
S11303508BBB08952BB381E090E002C0880F991FF6
S11303606A95E2F7809582238BBB0895413099F416
S113037080B78B7F80BF27B381E090E002C0880FF5
S1130380991F6A95E2F7982F9095922397BB98B39B
S1130390892B88BB089528B381E090E002C0880FC0
S11303A0991F6A95E2F78095822388BB08954130AE
S11303B099F480B78B7F80BF24B381E090E002C0C2
S11303C0880F991F6A95E2F7982F9095922394BB12
S11303D095B3892B85BB089525B381E090E002C0D5
S11303E0880F991F6A95E2F78095822385BB08954B
S11303F0413099F480B78B7F80BF21B381E090E0D6
S113040002C0880F991F6A95E2F7982F909592235E
S113041091BB92B3892B82BB089522B381E090E013
S113042002C0880F991F6A95E2F78095822382BBE8
S11304300895E199FECF9FBB8EBBE09A8DB30895DA
S1130440E199FECF4115510591F0460F571FFB016D
S11304509C01261B370BB9019B012E0F3F1F3FBB8D
S11304602EBBE09A9DB39193E417F507A9F708957D
S1130470E199FECF9FBB8EBBE09A8DB3861719F02E
S11304806DBBE29AE19A089541155105C9F0460FF2
S1130490571FFB019C01261B370BB901E199FECFC5
S11304A09B012E0F3F1F3FBB2EBBE09A2DB39191B2
S11304B0291719F09DBBE29AE19AE417F50771F741
S11304C0089541E060E084E40E94530041E061E06B
S11304D084E40E94530041E062E084E40E945300FB
S11304E041E063E084E40E94530040E064E084E47B
S11304F00E94530040E065E084E40E94530040E021
S113050066E084E40E94530040E067E084E40E94D3
S1130510530041E064E084E40E94880141E065E026
S113052084E40E94880141E066E084E40E9488013A
S113053041E067E084E40E9488010895EF92FF920D
S11305400F931F93CF93DF93CDB7DEB760970FB6AA
S1130550F894DEBF0FBECDBF80E1E0E6F0E0DE013F
S1130560119601900D928A95E1F7E12CF12C0FEF91
S113057041E060E084E40E94C30041E061E084E47F
S11305800E94C30041E062E084E40E94C30041E0B1
S113059063E084E40E94C3008FE39CE90197F1F7D0
S11305A000C0000040E06E2D84E40E94C30010E00F
S11305B064E0610F84E40E94330181110FC0F701EC
S11305C0EE0FFF1FEE0FFF1F81E090E08C0F9D1FC9
S11305D0E80FF91FE10FF11D008103C01F5F143004
S11305E039F79FEFE91AF90A84E0E816F10409F0F3
S11305F0BFCF802F60960FB6F894DEBF0FBECDBF7D
S1130600DF91CF911F910F91FF90EF900895CF93B9
S1130610C82F40E062E082E40E94C30040E061E051
S113062082E40E94C3004C2F441F4427441F66E009
S113063082E40E94C300C6FB442740F965E082E4DB
S11306400E94C300C5FB442740F964E082E40E9491
S1130650C300C4FB442740F963E082E40E94C30062
S113066040E060E082E40E94C30085E88A95F1F7E7
S1130670000041E060E082E40E94C300C3FB442721
S113068040F966E082E40E94C300C2FB442740F9BB
S113069065E082E40E94C300C1FB442740F964E0A2
S11306A082E40E94C3004C2F417063E082E40E9404
S11306B0C30040E060E082E40E94C30085E88A95BC
S11306C0F1F7000041E060E082E40E94C300CF91B2
S11306D0089541E063E081E40E94530041E064E056
S11306E081E40E94530041E065E081E40E945300EC
S11306F041E066E081E40E94530041E060E082E46E
S11307000E94530041E062E082E40E94530041E011
S113071061E082E40E94530041E060E082E40E94D0
S1130720C3002FE788E391E0215080409040E1F737
S113073000C0000040E062E082E40E94C30040E0A8
S113074061E082E40E94C30040E063E081E40E942F
S1130750530041E064E081E40E94530040E065E01E
S113076081E40E94530040E066E081E40E9453006B
S113077040E060E082E40E94C3002FE788E391E058
S1130780215080409040E1F700C0000041E060E06B
S113079082E40E94C3008CE20E9407038FEC97E07E
S11307A00197F1F700C000008FE00E9407038FEC6F
S11307B097E00197F1F700C0000081E00E94070371
S11307C08FE99FE00197F1F700C0000086E00E94E6
S11307D007038FEC97E00197F1F700C0000008953C
S11307E0CF93C82F40E062E082E40E94C30041E05E
S11307F061E082E40E94C30041E060E082E40E9480
S1130800C3008FE99FE00197F1F700C0000040E0CA
S113081060E082E40E94C3008FE99FE00197F1F752
S113082000C000004C2F441F4427441F66E082E4AC
S11308300E94C300C6FB442740F965E082E40E949D
S1130840C300C5FB442740F964E082E40E94C3006E
S1130850C4FB442740F963E082E40E94C30040E003
S113086060E082E40E94C30095E89A95F1F70000E5
S113087041E060E082E40E94C300C3FB442740F9E6
S113088066E082E40E94C300C2FB442740F965E0AD
S113089082E40E94C300C1FB442740F964E082E47F
S11308A00E94C3004C2F417063E082E40E94C300A5
S11308B040E060E082E40E94C30085E88A95F1F795
S11308C0000041E060E082E40E94C300CF910895FB
S11308D0CF93DF93EC018881882331F021960E9425
S11308E0F00389918111FBCFDF91CF91089581E0CD
S11308F00E9407038FE99FE00197F1F700C0000011
S11309000895862B0E940703089541E00E94530036
S1130910089541E00E94C300089540E00E94C3008E
S11309200895CF93DF93CDB7DEB728970FB6F89429
S1130930DEBF0FBECDBF60E083E40E94850461E0AA
S113094083E40E94850462E083E40E9485040E949B
S113095069030E9461020E94B00A65E081E00E947E
S1130960810480E790E00E94680461E082E00E94D4
S1130970810481E890E00E9468042FEF39E688E161
S1130980215030408040E1F700C000000E9477040D
S113099080E091E00E941902813039F481E091E015
S11309A00E941902813009F4CAC08DE890E00E94C7
S11309B0680461E082E00E94810487E990E00E947B
S11309C068049FEFE9E6F8E19150E040F040E1F778
S11309D000C000000E94770482EA90E00E9468044C
S11309E061E082E00E94810481EB90E00E9468044F
S11309F08FEF89838A838B838C839E012F5F3F4F84
S1130A00790169011CE00E949E028F3FE1F3F60127
S1130A1081936F010E94F003FFEF22E537E0F1506C
S1130A2020403040E1F700C00000612F82E00E94C6
S1130A3081048AE20E94F0038FEF90E7E2E08150A4
S1130A409040E040E1F700C000001F5F1031D9F68C
S1130A5044E050E0BE016F5F7F4F82E091E00E946E
S1130A60440261E080E091E00E9438020E94770431
S1130A708DEB90E00E946804FFEF24E33CE0F1502A
S1130A8020403040E1F700C000000E94770488EC69
S1130A9090E00E94680461E082E00E94810487ED96
S1130AA090E00E9468041CE00E949E028F3FE1F3E4
S1130AB0F70181937F010E94F003FFEF22E537E005
S1130AC0F15020403040E1F700C00000612F82E087
S1130AD00E9481048AE20E94F0038FEF90E7E2E033
S1130AE081509040E040E1F700C000001F5F1031EA
S1130AF0D9F644E050E0BE016F5F7F4F86E091E09D
S1130B000E94440261E081E091E00E9438020E9468
S1130B1077048DEB90E00E946804FFEF24E33CE04F
S1130B20F15020403040E1F700C000000E947704FB
S1130B3060E08AE091E00E943802C12C05C08AE09E
S1130B4091E00E941902C82EF12C33243A940F2EFE
S1130B50F2E39F2EF02DD32C0F2EFAE0AF2EF02DC2
S1130B600F2EF9E0BF2EF02D80918A02813001F51D
S1130B700E94D20A10928C0210928B0210928A0266
S1130B8061E083E40E948D0460E083E40E948D04AC
S1130B900E94770483EE90E00E9468048FEF99E648
S1130BA0E8E181509040E040E1F700C0000002C05D
S1130BB0F110B3C100E0132DF1E0CF1227C00E9461
S1130BC0770483EF90E00E94680461E082E00E9471
S1130BD0810481E091E00E94680462E083E40E9461
S1130BE089042AEA36EE86E991E0215030408040BB
S1130BF09040D9F7000062E083E40E948D0460E035
S1130C008AE091E00E94380200E0C12C0E9477043F
S1130C1081E191E00E94680461E082E00E94810425
S1130C208FE191E00E9468041F3F29F40E949E0214
S1130C30182F8F3FD9F380ED810F823088F00E9406
S1130C4077048FE291E00E946804EFEFF9E628E16F
S1130C50E150F0402040E1F700C000001D2DACCF72
S1130C60DD82DE82DF82D886D982DA82DB82DC8290
S1130C70103321F0113309F4A6C04BC1892C801A1A
S1130C800E9477048CE391E00E94680461E082E0B2
S1130C900E94810487E491E00E9468043FEF81EEA2
S1130CA094E0315080409040E1F700C000007E01A4
S1130CB0E5E0EE0EF11C1CE00E949E028F3FE1F382
S1130CC0F70181937F010E94F003FFEF22E537E0F3
S1130CD0F15020403040E1F700C00000612F82E075
S1130CE00E9481048AE20E94F0038FEF90E7E2E021
S1130CF081509040E040E1F700C000001F5F1031D8
S1130D00D9F644E050E0BE016F5F7F4F82E091E08E
S1130D100E94200244E0BE016F5F7F4FCE01059622
S1130D200E949209813021F50E94770483E591E0C5
S1130D300E94680461E082E00E9481048CE391E0F7
S1130D400E946804FFEF24E33CE0F150204030406F
S1130D50E1F700C0000060E083E40E9489040E947F
S1130D60BC0A0E94770400E01D2DFF24F394D2C036
S1130D700F5F0E9477048EE591E00E94680461E0B1
S1130D8082E00E94810489E691E00E946804882D33
S1130D900E94F0038FEF99E6E8E181509040E04033
S1130DA0E1F700C000000E9477048A94033008F43D
S1130DB067CF61E08AE091E00E9438021D2DCC24C7
S1130DC0C394F12CA7C0892C801A0E94770485E76C
S1130DD091E00E94680461E082E00E94810480E85E
S1130DE091E00E946804FFEF21EE34E0F1502040CE
S1130DF03040E1F700C000007E0185E0E80EF11C00
S1130E001CE00E949E028F3FE1F3F70181937F0172
S1130E100E94F003FFEF22E537E0F150204030401C
S1130E20E1F700C00000612F82E00E9481048AE2A1
S1130E300E94F0038FEF90E7E2E081509040E040A1
S1130E40E1F700C000001F5F1031D9F644E050E024
S1130E50BE016F5F7F4F86E091E00E94200244E074
S1130E60BE016F5F7F4FCE0105960E9492098130CB
S1130E7029F50E94770483E591E00E94680461E00B
S1130E8082E00E94810485E791E00E946804FFEFFC
S1130E9024E33CE0F15020403040E1F700C0000082
S1130EA061E083E40E9489040E94BC0A0E947704E2
S1130EB000E01D2D6894FF24F1F82CC00F5F0E9400
S1130EC077048CE891E00E94680461E082E00E946B
S1130ED0810489E691E00E946804882D0E94F00351
S1130EE08FEF99E6E8E181509040E040E1F700C0DF
S1130EF000000E9477048A94033008F466CF61E00E
S1130F008AE091E00E9438021D2DCC24C394F12C78
S1130F1001C0F12CFF2009F44FCE01E00F2EF7E0C1
S1130F205F2EF02D6894882483F80F2EF6E0EF2EC0
S1130F30F02D0F2EF3E07F2EF02D6894662462F8D6
S1130F400F2EF5E04F2EF02DA6C1FA013197EA30AD
S1130F50F10508F0A4C1E65DFF4F0C94DC0A882378
S1130F6009F4FEC0082D97C10E94770487E991E037
S1130F700E94680461E082E00E948104F1E0FF12B3
S1130F8005C087EA91E00E94680407C022E0F212DB
S1130F9004C087EB91E00E9468048F2D0E94B4097D
S1130FA0182F3FEF80E792E0315080409040E1F706
S1130FB000C00000113309F476C1123309F475C17D
S1130FC0133309F474C1143341F4E2E0FE1609F456
S1130FD070C1F1E0FF127FC16EC11F3F99F00E9402
S1130FE0770487EC91E00E9468042FEF34E38CE0EF
S1130FF0215030408040E1F700C00000115314300C
S113100008F449C180918A02882309F4ADCF43C111
S11310100E94770483ED91E00E94680461E082E01D
S11310200E94810486EE91E00E9468048F2D0E9444
S1131030B409182F9FEFE0E7F2E09150E040F04050
S1131040E1F700C00000813309F437C1823309F4A9
S113105036C1833309F435C1843309F434C18F3F75
S113106099F00E94770487EC91E00E9468042FEFC6
S113107034E38CE0215030408040E1F700C00000B0
S11310801153143008F407C180918A02882309F4AB
S1131090BFCF01C10E94770487EF91E00E946804EA
S11310A061E082E00E9481048AE092E00E94680488
S11310B08F2D0E94B409182F9FEFE0E7F2E09150C2
S11310C0E040F040E1F700C00000813309F4FDC0C6
S11310D0823309F4FCC0803309F4FBC08F3F99F0DC
S11310E00E94770487EC91E00E9468042FEF34E3B8
S11310F08CE0215030408040E1F700C000001053E4
S1131100133008F4C8C080918A02882319F2C3C03E
S11311106F2D872D0E94D30901E0BDC06F2D862D50
S11311200E94D30901E0B7C06F2D842D0E94D3091A
S113113001E0B1C06F2D8E2D0E94D30992E0F91603
S113114009F4A2C002E0A7C06F2D852D0E94D30927
S113115002E0A1C06F2D8B2D0E94D309082D9BC0E6
S11311600E9477048BE192E00E9468048FED0E9454
S1131170F00383E40E94F0036BE081E00E948104A9
S1131180EFEFF1EE24E0E150F0402040E1F700C041
S113119000008F2D0E94B4093FE79AE1E6E0315048
S11311A09040E040E1F700C0000090918A02913045
S11311B009F46CC010ED180F1A3080F00E94770407
S11311C087EC91E00E946804FFEF24E33CE0F150D7
S11311D020403040E1F700C000004FC00E94F003FF
S11311E08F2D0E94B4099FE7EAE1F6E09150E040B8
S11311F0F040E1F700C0000090918A02913009F4B8
S113120047C000ED080F0A3080F00E94770487EC95
S113121091E00E9468042FEF34E38CE021503040C9
S11312208040E1F700C0000028C00E94F003110FC5
S1131230812F880F880F180F010F80E40E94B70ACE
S11312409FEFE1EEF4E09150E040F040E1F700C0A0
S11312500000802F0E94B70A0E94770489E292E07E
S11312600E9468042FEF34E38CE02150304080402A
S1131270E1F700C0000001110DC080918A028823AB
S113128009F46ECF082D07C001E005C0082D03C086
S1131290082D01C0082D80918A02402F50E0813032
S11312A009F053CE61CC072DF6CF062DF4CF042DD3
S11312B0F2CF0E2DF0CF02E0EECF0E2DECCF052DA8
S11312C0EACF082DE8CF01E0E6CF0A2DE4CF0B2DBD
S11312D0E2CF02E0E0CF0E94770487EC91E00E9425
S11312E068049FEFE4E3FCE09150E040F040E1F754
S11312F000C00000D0CF1F920F920FB60F9211249E
S11313008F939F9380918B0290918C02019690937E
S11313108C0280938B029F918F910F900FBE0F9040
S11313201F9018954423D1F0FC013081FB012081EA
S1131330321316C0FC013196DB011196415050E086
S11313404F5F5F4F480F591F04C021919D9129138E
S113135009C0E417F507C9F781E0089581E008950D
S113136080E0089580E00895CF93C82F80918B0288
S113137090918C02883B9B4010F0C13049F08091E1
S11313808B0290918C02803D974038F0C23029F452
S113139081E080938A028FEF04C00E949E028F3FF7
S11313A029F3CF9108958F929F92AF92BF92CF92DB
S11313B0DF92EF92FF920F931F93CF93DF93D82F77
S11313C0E62E00E0F12C10E00F2EF3E18F2EF02D2D
S11313D00F2EF5E19F2EF02D0F2EF4E1AF2EF02D00
S11313E00F2EF6E1BF2EF02D0F2EF1E1CF2EF02DB2
S11313F00F2EF2E1DF2EF02D0E947704D53011F18B
S113140028F4D33049F0D43091F047C0D73081F17B
S113141020F1D930C1F141C08AE392E00E9468040E
S113142001E30F2EF1E2FF2EF02D1C2D36C083E4D4
S113143092E00E94680402E30F2EF2E2FF2EF02DE8
S11314401D2D2BC08CE492E00E94680403E30F2E50
S1131450F3E2FF2EF02D182D20C085E592E00E94C6
S1131460680404E30F2EF4E2FF2EF02D1A2D15C0AC
S11314708EE592E00E94680405E30F2EF5E2FF2E4C
S1131480F02D192D0AC084E692E00E94680406E358
S11314900F2EF6E2FF2EF02D1B2D812F0E94B70A8E
S11314A02FEF80E792E0215080409040E1F700C0A8
S11314B000008FEF0E94B70A813029F481E792E09F
S11314C00E94680404C084E792E00E94680461E01A
S11314D082E00E94810488E792E00E9468048E2DD5
S11314E00E94B409C82F2FEF80E792E0215080407A
S11314F09040E1F700C00000C13321F48F2D0E9419
S1131500B70A21C0C23321F4802F0E94B70A1BC03E
S1131510CF3FA1F0C033B9F00E94770487EC91E08B
S11315200E9468042FEF84E39CE0215080409040A7
S1131530E1F700C00000C053C33028F080918A0254
S1131540882309F459CFDF91CF911F910F91FF9018
S1131550EF90DF90CF90BF90AF909F908F900895C1
S113156087B3806B87BB8DB181658DB908958FB9C1
S1131570779BFECF8FB108958EE48CBF83B78860CC
S113158083BF83B78F7B83BF83B7816083BF83B7F8
S11315908D7F83BF83B7846083BF789489B782606B
S11315A089BF089583B78E7F83BF83B78D7F83BF41
S11315B083B78B7F83BF0895EE0FFF1F0590F491CF
S10B15C0E02D0994F894FFCF1B
S11315C83738392F3435362A3132332D41303D2BD3
S11315D857656C636F6D6520746F20736D617274E9
S11315E800686F6D652073797374656D004C6F675F
S11315F8696E20666F720066697273742074696D0F
S113160865005365742041646D696E20706173735D
S11316180041646D696E20706173733A00506173A0
S11316287320536176656400536574204775657348
S11316387420506173730047756573742050617327
S1131648733A0053657373696F6E2054696D656FDF
S11316587574004C6F67696E20626C6F636B6564A8
S11316680077616974203230207365636F6E647328
S11316780053656C656374206D6F6465203A0030AF
S11316883A41646D696E20313A4775657374005741
S1131698726F6E6720696E7075742E0041646D698F
S11316A86E206D6F646500456E74657220506173B9
S11316B8733A0052696768742070617373005772D3
S11316C86F6E672050617373005472696573206C80
S11316D86566743A004775657374206D6F646500B8
S11316E8456E74657220706173733A0057726F6E39
S11316F867207061737300313A526F6F6D31203215
S11317083A526F6F6D3200333A526F6F6D33203433
S11317183A4D6F72652000333A526F6F6D3320343F
S11317283A526F6F6D340057726F6E6720696E702E
S1131738757400313A526F6F6D3420202020323A8C
S1131748545620202000333A41697220436F6E6456
S11317582E343A52455400313A5365742074656DF9
S113176870657261747572652000323A436F6E74E5
S1131778726F6C2020303A524554005365742074BB
S1131788656D702E3A5F5F200054656D70657261F7
S1131798747572652053656E7400526F6F6D3120D5
S11317A8533A00526F6F6D3220533A00526F6F6D87
S11317B83320533A00526F6F6D3420533A00545615
S11317C820533A0041697220436F6E642E20533AC5
S11317D8004F4E004F464600312D4F6E20322D4F9C
S10D17E8666620302D5245540000BF
S9030000FC
